{
    "_format": "hh-sol-artifact-1",
    "contractName": "Web3RSVP",
    "sourceName": "contracts/Web3RSVP.sol",
    "abi": [
        {
            "anonymous": false,
            "inputs": [
                {
                    "indexed": false,
                    "internalType": "bytes32",
                    "name": "eventID",
                    "type": "bytes32"
                },
                {
                    "indexed": false,
                    "internalType": "address",
                    "name": "attendeeAddress",
                    "type": "address"
                }
            ],
            "name": "ConfirmedAttendee",
            "type": "event"
        },
        {
            "anonymous": false,
            "inputs": [
                {
                    "indexed": false,
                    "internalType": "bytes32",
                    "name": "eventID",
                    "type": "bytes32"
                }
            ],
            "name": "DepositsPaidOut",
            "type": "event"
        },
        {
            "anonymous": false,
            "inputs": [
                {
                    "indexed": false,
                    "internalType": "bytes32",
                    "name": "eventID",
                    "type": "bytes32"
                },
                {
                    "indexed": false,
                    "internalType": "address",
                    "name": "creatorAddress",
                    "type": "address"
                },
                {
                    "indexed": false,
                    "internalType": "uint256",
                    "name": "eventTimestamp",
                    "type": "uint256"
                },
                {
                    "indexed": false,
                    "internalType": "uint256",
                    "name": "maxCapacity",
                    "type": "uint256"
                },
                {
                    "indexed": false,
                    "internalType": "uint256",
                    "name": "deposit",
                    "type": "uint256"
                },
                {
                    "indexed": false,
                    "internalType": "string",
                    "name": "eventDataCID",
                    "type": "string"
                }
            ],
            "name": "NewEventCreated",
            "type": "event"
        },
        {
            "anonymous": false,
            "inputs": [
                {
                    "indexed": false,
                    "internalType": "bytes32",
                    "name": "eventID",
                    "type": "bytes32"
                },
                {
                    "indexed": false,
                    "internalType": "address",
                    "name": "attendeeAddress",
                    "type": "address"
                }
            ],
            "name": "NewRSVP",
            "type": "event"
        },
        {
            "inputs": [
                {
                    "internalType": "bytes32",
                    "name": "eventId",
                    "type": "bytes32"
                }
            ],
            "name": "confirmAllAttendees",
            "outputs": [],
            "stateMutability": "nonpayable",
            "type": "function"
        },
        {
            "inputs": [
                {
                    "internalType": "bytes32",
                    "name": "eventId",
                    "type": "bytes32"
                },
                {
                    "internalType": "address",
                    "name": "attendee",
                    "type": "address"
                }
            ],
            "name": "confirmAttendee",
            "outputs": [],
            "stateMutability": "nonpayable",
            "type": "function"
        },
        {
            "inputs": [
                {
                    "internalType": "uint256",
                    "name": "eventTimestamp",
                    "type": "uint256"
                },
                {
                    "internalType": "uint256",
                    "name": "deposit",
                    "type": "uint256"
                },
                {
                    "internalType": "uint256",
                    "name": "maxCapacity",
                    "type": "uint256"
                },
                {
                    "internalType": "string",
                    "name": "eventDataCID",
                    "type": "string"
                }
            ],
            "name": "createNewEvent",
            "outputs": [],
            "stateMutability": "nonpayable",
            "type": "function"
        },
        {
            "inputs": [
                {
                    "internalType": "bytes32",
                    "name": "eventId",
                    "type": "bytes32"
                }
            ],
            "name": "createNewRSVP",
            "outputs": [],
            "stateMutability": "payable",
            "type": "function"
        },
        {
            "inputs": [
                {
                    "internalType": "bytes32",
                    "name": "",
                    "type": "bytes32"
                }
            ],
            "name": "idToEvent",
            "outputs": [
                {
                    "internalType": "bytes32",
                    "name": "eventId",
                    "type": "bytes32"
                },
                {
                    "internalType": "string",
                    "name": "eventDataCID",
                    "type": "string"
                },
                {
                    "internalType": "address",
                    "name": "eventOwner",
                    "type": "address"
                },
                {
                    "internalType": "uint256",
                    "name": "eventTimestamp",
                    "type": "uint256"
                },
                {
                    "internalType": "uint256",
                    "name": "deposit",
                    "type": "uint256"
                },
                {
                    "internalType": "uint256",
                    "name": "maxCapacity",
                    "type": "uint256"
                },
                {
                    "internalType": "bool",
                    "name": "paidOut",
                    "type": "bool"
                }
            ],
            "stateMutability": "view",
            "type": "function"
        },
        {
            "inputs": [
                {
                    "internalType": "bytes32",
                    "name": "eventId",
                    "type": "bytes32"
                }
            ],
            "name": "withdrawUnclaimedDeposits",
            "outputs": [],
            "stateMutability": "nonpayable",
            "type": "function"
        }
    ],
    "bytecode": "0x608060405234801561001057600080fd5b50612223806100206000396000f3fe6080604052600436106100545760003560e01c806292098c1461005957806317f0165a146100825780636dcdf2cd1461009e57806379747571146100c7578063909ef021146100f0578063acdbe01214610133575b600080fd5b34801561006557600080fd5b50610080600480360381019061007b9190611564565b61015c565b005b61009c60048036038101906100979190611622565b610378565b005b3480156100aa57600080fd5b506100c560048036038101906100c091906116ad565b6105e5565b005b3480156100d357600080fd5b506100ee60048036038101906100e99190611622565b610ab8565b005b3480156100fc57600080fd5b5061011760048036038101906101129190611622565b610f6a565b60405161012a97969594939291906117ce565b60405180910390f35b34801561013f57600080fd5b5061015a60048036038101906101559190611622565b611061565b005b600033308787876040516020016101779594939291906118ad565b60405160208183030381529060405280519060200120905060608060405180610120016040528084815260200186868080601f016020809104026020016040519081016040528093929190818152602001838380828437600081840152601f19601f8201169050808301925050505050505081526020013373ffffffffffffffffffffffffffffffffffffffff16815260200189815260200188815260200187815260200183815260200182815260200160001515815250600080858152602001908152602001600020600082015181600001556020820151816001019080519060200190610267929190611392565b5060408201518160020160006101000a81548173ffffffffffffffffffffffffffffffffffffffff021916908373ffffffffffffffffffffffffffffffffffffffff160217905550606082015181600301556080820151816004015560a0820151816005015560c08201518160060190805190602001906102e9929190611418565b5060e0820151816007019080519060200190610306929190611418565b506101008201518160080160006101000a81548160ff0219169083151502179055509050507f2553138c3f9c9008f266dbdbe9fc64f5b71e098d06ef714a190a65a8b9fc6bf383338a898b8a8a6040516103669796959493929190611948565b60405180910390a15050505050505050565b60008060008381526020019081526020016000209050806004015434146103d4576040517f08c379a00000000000000000000000000000000000000000000000000000000081526004016103cb906119fe565b60405180910390fd5b806003015442111561041b576040517f08c379a000000000000000000000000000000000000000000000000000000000815260040161041290611a6a565b60405180910390fd5b8060050154816006018054905010610468576040517f08c379a000000000000000000000000000000000000000000000000000000000815260040161045f90611ad6565b60405180910390fd5b60005b81600601805490508160ff161015610542573373ffffffffffffffffffffffffffffffffffffffff16826006018260ff16815481106104ad576104ac611af6565b5b9060005260206000200160009054906101000a900473ffffffffffffffffffffffffffffffffffffffff1673ffffffffffffffffffffffffffffffffffffffff16141561052f576040517f08c379a000000000000000000000000000000000000000000000000000000000815260040161052690611b71565b60405180910390fd5b808061053a90611bcd565b91505061046b565b5080600601339080600181540180825580915050600190039060005260206000200160009091909190916101000a81548173ffffffffffffffffffffffffffffffffffffffff021916908373ffffffffffffffffffffffffffffffffffffffff1602179055507fb79f4240bbdd272d98e02a5db7f0cf156e5fc000961c517670a26eeeec63ed9082336040516105d9929190611bf7565b60405180910390a15050565b600080600084815260200190815260200160002090508060020160009054906101000a900473ffffffffffffffffffffffffffffffffffffffff1673ffffffffffffffffffffffffffffffffffffffff163373ffffffffffffffffffffffffffffffffffffffff161461068d576040517f08c379a000000000000000000000000000000000000000000000000000000000815260040161068490611c6c565b60405180910390fd5b600080600090505b82600601805490508160ff161015610778578373ffffffffffffffffffffffffffffffffffffffff16836006018260ff16815481106106d7576106d6611af6565b5b9060005260206000200160009054906101000a900473ffffffffffffffffffffffffffffffffffffffff1673ffffffffffffffffffffffffffffffffffffffff16141561076557826006018160ff168154811061073757610736611af6565b5b9060005260206000200160009054906101000a900473ffffffffffffffffffffffffffffffffffffffff1691505b808061077090611bcd565b915050610695565b508273ffffffffffffffffffffffffffffffffffffffff168173ffffffffffffffffffffffffffffffffffffffff16146107e7576040517f08c379a00000000000000000000000000000000000000000000000000000000081526004016107de90611cd8565b60405180910390fd5b60005b82600701805490508160ff1610156108c1578373ffffffffffffffffffffffffffffffffffffffff16836007018260ff168154811061082c5761082b611af6565b5b9060005260206000200160009054906101000a900473ffffffffffffffffffffffffffffffffffffffff1673ffffffffffffffffffffffffffffffffffffffff1614156108ae576040517f08c379a00000000000000000000000000000000000000000000000000000000081526004016108a590611d44565b60405180910390fd5b80806108b990611bcd565b9150506107ea565b508160080160009054906101000a900460ff1615610914576040517f08c379a000000000000000000000000000000000000000000000000000000000815260040161090b90611dd6565b60405180910390fd5b81600701839080600181540180825580915050600190039060005260206000200160009091909190916101000a81548173ffffffffffffffffffffffffffffffffffffffff021916908373ffffffffffffffffffffffffffffffffffffffff16021790555060008373ffffffffffffffffffffffffffffffffffffffff1683600401546040516109a390611e27565b60006040518083038185875af1925050503d80600081146109e0576040519150601f19603f3d011682016040523d82523d6000602084013e6109e5565b606091505b5050905080610a385782600701805480610a0257610a01611e3c565b5b6001900381819060005260206000200160006101000a81549073ffffffffffffffffffffffffffffffffffffffff021916905590555b80610a78576040517f08c379a0000000000000000000000000000000000000000000000000000000008152600401610a6f90611eb7565b60405180910390fd5b7ff8d1583a733d83bdd3ef5464129d0a95a36d62b382d31c6d0467a61f4264381b8585604051610aa9929190611bf7565b60405180910390a15050505050565b60008060008381526020019081526020016000206040518061012001604052908160008201548152602001600182018054610af290611f06565b80601f0160208091040260200160405190810160405280929190818152602001828054610b1e90611f06565b8015610b6b5780601f10610b4057610100808354040283529160200191610b6b565b820191906000526020600020905b815481529060010190602001808311610b4e57829003601f168201915b505050505081526020016002820160009054906101000a900473ffffffffffffffffffffffffffffffffffffffff1673ffffffffffffffffffffffffffffffffffffffff1673ffffffffffffffffffffffffffffffffffffffff16815260200160038201548152602001600482015481526020016005820154815260200160068201805480602002602001604051908101604052809291908181526020018280548015610c6d57602002820191906000526020600020905b8160009054906101000a900473ffffffffffffffffffffffffffffffffffffffff1673ffffffffffffffffffffffffffffffffffffffff1681526020019060010190808311610c23575b5050505050815260200160078201805480602002602001604051908101604052809291908181526020018280548015610cfb57602002820191906000526020600020905b8160009054906101000a900473ffffffffffffffffffffffffffffffffffffffff1673ffffffffffffffffffffffffffffffffffffffff1681526020019060010190808311610cb1575b505050505081526020016008820160009054906101000a900460ff161515151581525050905080610100015115610d67576040517f08c379a0000000000000000000000000000000000000000000000000000000008152600401610d5e90611faa565b60405180910390fd5b62093a808160600151610d7a9190611fca565b421015610dbc576040517f08c379a0000000000000000000000000000000000000000000000000000000008152600401610db3906120b8565b60405180910390fd5b806040015173ffffffffffffffffffffffffffffffffffffffff163373ffffffffffffffffffffffffffffffffffffffff1614610e2e576040517f08c379a0000000000000000000000000000000000000000000000000000000008152600401610e2590612124565b60405180910390fd5b60008160e00151518260c0015151610e469190612144565b90506000826080015182610e5a9190612178565b905060018361010001901515908115158152505060003373ffffffffffffffffffffffffffffffffffffffff1682604051610e9490611e27565b60006040518083038185875af1925050503d8060008114610ed1576040519150601f19603f3d011682016040523d82523d6000602084013e610ed6565b606091505b5050905080610eec576000151584610100015150505b80610f2c576040517f08c379a0000000000000000000000000000000000000000000000000000000008152600401610f2390611eb7565b60405180910390fd5b7f393073ea1365f611c3d2f240c992960d2b99dc81715555d3fc40fc55ba80af9c85604051610f5b91906121d2565b60405180910390a15050505050565b6000602052806000526040600020600091509050806000015490806001018054610f9390611f06565b80601f0160208091040260200160405190810160405280929190818152602001828054610fbf90611f06565b801561100c5780601f10610fe15761010080835404028352916020019161100c565b820191906000526020600020905b815481529060010190602001808311610fef57829003601f168201915b5050505050908060020160009054906101000a900473ffffffffffffffffffffffffffffffffffffffff16908060030154908060040154908060050154908060080160009054906101000a900460ff16905087565b6000806000838152602001908152602001600020604051806101200160405290816000820154815260200160018201805461109b90611f06565b80601f01602080910402602001604051908101604052809291908181526020018280546110c790611f06565b80156111145780601f106110e957610100808354040283529160200191611114565b820191906000526020600020905b8154815290600101906020018083116110f757829003601f168201915b505050505081526020016002820160009054906101000a900473ffffffffffffffffffffffffffffffffffffffff1673ffffffffffffffffffffffffffffffffffffffff1673ffffffffffffffffffffffffffffffffffffffff1681526020016003820154815260200160048201548152602001600582015481526020016006820180548060200260200160405190810160405280929190818152602001828054801561121657602002820191906000526020600020905b8160009054906101000a900473ffffffffffffffffffffffffffffffffffffffff1673ffffffffffffffffffffffffffffffffffffffff16815260200190600101908083116111cc575b50505050508152602001600782018054806020026020016040519081016040528092919081815260200182805480156112a457602002820191906000526020600020905b8160009054906101000a900473ffffffffffffffffffffffffffffffffffffffff1673ffffffffffffffffffffffffffffffffffffffff168152602001906001019080831161125a575b505050505081526020016008820160009054906101000a900460ff1615151515815250509050806040015173ffffffffffffffffffffffffffffffffffffffff163373ffffffffffffffffffffffffffffffffffffffff161461133c576040517f08c379a000000000000000000000000000000000000000000000000000000000815260040161133390611c6c565b60405180910390fd5b60005b8160c00151518160ff16101561138d5761137a838360c001518360ff168151811061136d5761136c611af6565b5b60200260200101516105e5565b808061138590611bcd565b91505061133f565b505050565b82805461139e90611f06565b90600052602060002090601f0160209004810192826113c05760008555611407565b82601f106113d957805160ff1916838001178555611407565b82800160010185558215611407579182015b828111156114065782518255916020019190600101906113eb565b5b50905061141491906114a2565b5090565b828054828255906000526020600020908101928215611491579160200282015b828111156114905782518260006101000a81548173ffffffffffffffffffffffffffffffffffffffff021916908373ffffffffffffffffffffffffffffffffffffffff16021790555091602001919060010190611438565b5b50905061149e91906114a2565b5090565b5b808211156114bb5760008160009055506001016114a3565b5090565b600080fd5b600080fd5b6000819050919050565b6114dc816114c9565b81146114e757600080fd5b50565b6000813590506114f9816114d3565b92915050565b600080fd5b600080fd5b600080fd5b60008083601f840112611524576115236114ff565b5b8235905067ffffffffffffffff81111561154157611540611504565b5b60208301915083600182028301111561155d5761155c611509565b5b9250929050565b6000806000806000608086880312156115805761157f6114bf565b5b600061158e888289016114ea565b955050602061159f888289016114ea565b94505060406115b0888289016114ea565b935050606086013567ffffffffffffffff8111156115d1576115d06114c4565b5b6115dd8882890161150e565b92509250509295509295909350565b6000819050919050565b6115ff816115ec565b811461160a57600080fd5b50565b60008135905061161c816115f6565b92915050565b600060208284031215611638576116376114bf565b5b60006116468482850161160d565b91505092915050565b600073ffffffffffffffffffffffffffffffffffffffff82169050919050565b600061167a8261164f565b9050919050565b61168a8161166f565b811461169557600080fd5b50565b6000813590506116a781611681565b92915050565b600080604083850312156116c4576116c36114bf565b5b60006116d28582860161160d565b92505060206116e385828601611698565b9150509250929050565b6116f6816115ec565b82525050565b600081519050919050565b600082825260208201905092915050565b60005b8381101561173657808201518184015260208101905061171b565b83811115611745576000848401525b50505050565b6000601f19601f8301169050919050565b6000611767826116fc565b6117718185611707565b9350611781818560208601611718565b61178a8161174b565b840191505092915050565b61179e8161166f565b82525050565b6117ad816114c9565b82525050565b60008115159050919050565b6117c8816117b3565b82525050565b600060e0820190506117e3600083018a6116ed565b81810360208301526117f5818961175c565b90506118046040830188611795565b61181160608301876117a4565b61181e60808301866117a4565b61182b60a08301856117a4565b61183860c08301846117bf565b98975050505050505050565b60008160601b9050919050565b600061185c82611844565b9050919050565b600061186e82611851565b9050919050565b6118866118818261166f565b611863565b82525050565b6000819050919050565b6118a76118a2826114c9565b61188c565b82525050565b60006118b98288611875565b6014820191506118c98287611875565b6014820191506118d98286611896565b6020820191506118e98285611896565b6020820191506118f98284611896565b6020820191508190509695505050505050565b82818337600083830152505050565b60006119278385611707565b935061193483858461190c565b61193d8361174b565b840190509392505050565b600060c08201905061195d600083018a6116ed565b61196a6020830189611795565b61197760408301886117a4565b61198460608301876117a4565b61199160808301866117a4565b81810360a08301526119a481848661191b565b905098975050505050505050565b7f4e4f5420454e4f55474800000000000000000000000000000000000000000000600082015250565b60006119e8600a83611707565b91506119f3826119b2565b602082019050919050565b60006020820190508181036000830152611a17816119db565b9050919050565b7f414c52454144592048415050454e454400000000000000000000000000000000600082015250565b6000611a54601083611707565b9150611a5f82611a1e565b602082019050919050565b60006020820190508181036000830152611a8381611a47565b9050919050565b7f54686973206576656e7420686173207265616368656420636170616369747900600082015250565b6000611ac0601f83611707565b9150611acb82611a8a565b602082019050919050565b60006020820190508181036000830152611aef81611ab3565b9050919050565b7f4e487b7100000000000000000000000000000000000000000000000000000000600052603260045260246000fd5b7f414c524541445920434f4e4649524d4544000000000000000000000000000000600082015250565b6000611b5b601183611707565b9150611b6682611b25565b602082019050919050565b60006020820190508181036000830152611b8a81611b4e565b9050919050565b7f4e487b7100000000000000000000000000000000000000000000000000000000600052601160045260246000fd5b600060ff82169050919050565b6000611bd882611bc0565b915060ff821415611bec57611beb611b91565b5b600182019050919050565b6000604082019050611c0c60008301856116ed565b611c196020830184611795565b9392505050565b7f4e4f5420415554484f52495a4544000000000000000000000000000000000000600082015250565b6000611c56600e83611707565b9150611c6182611c20565b602082019050919050565b60006020820190508181036000830152611c8581611c49565b9050919050565b7f4e4f205253565020544f20434f4e4649524d0000000000000000000000000000600082015250565b6000611cc2601283611707565b9150611ccd82611c8c565b602082019050919050565b60006020820190508181036000830152611cf181611cb5565b9050919050565b7f414c524541445920434c41494d45440000000000000000000000000000000000600082015250565b6000611d2e600f83611707565b9150611d3982611cf8565b602082019050919050565b60006020820190508181036000830152611d5d81611d21565b9050919050565b7f414c52454144592050414944204f55543a2043414e4e4f5420434f4e4649524d60008201527f20415454454e4445452e00000000000000000000000000000000000000000000602082015250565b6000611dc0602a83611707565b9150611dcb82611d64565b604082019050919050565b60006020820190508181036000830152611def81611db3565b9050919050565b600081905092915050565b50565b6000611e11600083611df6565b9150611e1c82611e01565b600082019050919050565b6000611e3282611e04565b9150819050919050565b7f4e487b7100000000000000000000000000000000000000000000000000000000600052603160045260246000fd5b7f4661696c656420746f2073656e64204574686572000000000000000000000000600082015250565b6000611ea1601483611707565b9150611eac82611e6b565b602082019050919050565b60006020820190508181036000830152611ed081611e94565b9050919050565b7f4e487b7100000000000000000000000000000000000000000000000000000000600052602260045260246000fd5b60006002820490506001821680611f1e57607f821691505b60208210811415611f3257611f31611ed7565b5b50919050565b7f414c52454144592050414944204f55543a2043414e4e4f54205749544844524160008201527f5720554e434c41494d4544204445504f534954532e0000000000000000000000602082015250565b6000611f94603583611707565b9150611f9f82611f38565b604082019050919050565b60006020820190508181036000830152611fc381611f87565b9050919050565b6000611fd5826114c9565b9150611fe0836114c9565b9250827fffffffffffffffffffffffffffffffffffffffffffffffffffffffffffffffff0382111561201557612014611b91565b5b828201905092915050565b7f544f4f204541524c593a20372044415953204d5553542050415353204245464f60008201527f5245205749544844524157494e4720554e434c41494d4544204445504f53495460208201527f532e000000000000000000000000000000000000000000000000000000000000604082015250565b60006120a2604283611707565b91506120ad82612020565b606082019050919050565b600060208201905081810360008301526120d181612095565b9050919050565b7f4d555354204245204556454e54204f574e455220544f2057495448445241572e600082015250565b600061210e602083611707565b9150612119826120d8565b602082019050919050565b6000602082019050818103600083015261213d81612101565b9050919050565b600061214f826114c9565b915061215a836114c9565b92508282101561216d5761216c611b91565b5b828203905092915050565b6000612183826114c9565b915061218e836114c9565b9250817fffffffffffffffffffffffffffffffffffffffffffffffffffffffffffffffff04831182151516156121c7576121c6611b91565b5b828202905092915050565b60006020820190506121e760008301846116ed565b9291505056fea26469706673582212205c0b1b21fafb7af40f3301ec863adddc29dfbceaf35fe875be1632a28c07ed9f64736f6c63430008090033",
    "linkReferences": {},
    "deployedLinkReferences": {}
}